:020000002429B1
:0E000600213083120313FD00FD0B07280800B4
:100014000F3083120313FC004730FD00FD0B102842
:0A002400FC0B10280000000008008B
:06002E00000000000800C4
:1000340083160313B71B21288312861223288312E5
:1000440086168316371B2928831206122B2883123F
:1000540006168316B71A31288312861133288312A1
:1000640086158316371A3928831206113B28831202
:10007400061583162B18412883120614432883126D
:1000840006108614172086108316B7194C2883127D
:1000940086124E2883128616831637195428831223
:1000A40006125628831206168316B7185C28831284
:1000B40086115E28831286158316371864288312E6
:1000C400061166288312061583162B186C288312D2
:1000D40006146E28831206108614172086108316C1
:0C00E4002B1C76280A2077280320080037
:0E00F000831603132A088A00290882000800DC
:1000FE00831603132B103608B7001A2083162B1401
:02010E000800E7
:100110008316031386100610061186110612861226
:1001200083128610061086120612861106110A2006
:100130000A200A20861506158614172086100A2024
:100140008614172086100A208614172086100A208D
:1001500006118614172086100A2086141720861090
:10016000861186168614172086100A208612061518
:1001700086141720861006118614172086100A2070
:1001800086141720861006158614172086100A205C
:100190000611861417208610861606168615061573
:0E01A0008614172086100A2083162B140800E0
:1001AE00E928803083160313B200FC28C030B20059
:1001BE00FC289430B200FC28D430B200FC288030E9
:1001CE00B200FC28831603133208013A0319D8280B
:1001DE003208023A0319DD283208033A0319E028DF
:1001EE003208043A0319E328E6283303F0003208F4
:1001FE00F0077008B2007008B7001A2083162B1093
:10020E00B50135083407840000080319162935088E
:10021E00340784000008B6007F20B50A08292B1485
:02022E000800C6
:1002300078208A110A128000840AA90A0319AA0ADE
:08024000F003031D182908005A
:100248003E2383160313AC01AD011030AE0000301D
:10025800AF00B001B10107309C0006309F000F309D
:10026800850083128501880187018316860187012D
:100278008030880083120815881788200130B7005D
:100288001A200C308316B7001A2001308316B200EA
:100298000130B3006A30B400D7200230B200013018
:1002A800B300A330B400D7200630FB001330FC00A5
:1002B800AD30FD00FD0B5E29FC0B5E29FB0B5E29B2
:1002C800000000000130B7001A2001308316B20088
:1002D8000130B3004830B400D7200230B2000130FA
:1002E800B3003930B400D7200630FB001330FC00CF
:1002F800AD30FD00FD0B7E29FC0B7E29FB0B7E2912
:1003080000000000AC01AD0180302D06F000803007
:100318007002031D91290F302C020318A9291C30E3
:10032800B7001A200230FB004530FC00A930FD0060
:10033800FD0B9C29FC0B9C29FB0B9C290000000051
:100348008316AC0A0319AD0A8829AC01AD018316DE
:100358000130B7001A2001308316B2000130B30013
:100368005230B400D7200230B2000130B3006330FD
:10037800B400D7208030F00080302F067002031DB3
:10038800C7292E08003C0318D1298312081501300B
:100398008316AE02031CAF03D329831208118030E1
:1003A800F0008030831631067002031DDD29300805
:1003B800003C0318F529831208140230FB0045306D
:1003C800FC00A930FD00FD0BE729FC0BE729FB0B1E
:1003D800E72900000000081001308316B002031C52
:1003E800B1038312881BFD2910308316AE0000303C
:1003F800AF00831205080F3A031D2B2A8814013019
:100408008316B2000830B3005A30B400D720023047
:10041800B2000730B300A030B400D72001308312F7
:100428008700003083162D06031D1C2A00302C0679
:10043800031D262A1030AE000030AF000330B00094
:100448000030B1000130AC000030AD00CF2A83127B
:1004580005080E3A031D532A01308316B2000830EE
:10046800B3003130B400D72000302D06031D3E2ADA
:1004780001302C06031D482A0230B2000730B300B1
:10048800A030B400D7204F2A0230B2000730B300A2
:100498003530B400D720033083128700CF2A0508EF
:1004A8000C3A031D7A2A01308316B2000830B300D3
:1004B8002A30B400D72000302D06031D652A0130EC
:1004C8002C06031D6F2A0230B2000730B300A0309B
:1004D800B400D720762A0230B2000730B300353096
:1004E800B400D720073083128700CF2A0508083ABE
:1004F800031DA12A01308316B2000830B300203052
:10050800B400D72000302D06031D8C2A01302C069C
:10051800031D962A0230B2000730B300A030B400A1
:10052800D7209D2A0230B2000730B3003530B4001E
:10053800D7200F3083128700CF2A0508003A031D01
:10054800CD2A01308316B2000830B3002530B4003C
:10055800D7200230B2000730B3003530B400D720BE
:1005680083128810003083162D06031DBD2A013022
:100578002C06031DC72A1030AE000030AF00033030
:10058800B0000030B100AC01AD011F30831287000C
:10059800CF2A0F3085000230FB004530FC00A9301F
:1005A800FD00FD0BD52AFC0BD52AFB0BD52A000034
:0605B8000000AB29DE2A61
:10067C0020308400503083120313F000E4308316D2
:10068C00A9000230AA001821A03084000930F00023
:0E069C0034308316A9000330AA00182108008C
:0A05C80048346934673468340034A5
:0A05D200463475346C346C34003488
:0E05DC004D3465346434693475346D34003444
:0805EA004C346F347734003407
:0805F2004F3446344634003456
:1005FA0041346E346434203443346F346E3474348A
:0E060A0072346F346C346C34653472340034E6
:1006180049346E34643469346334613474346F3407
:0406280072340034F4
:10062C004C346534763465346C343A3420340034CC
:10063C00563465347234793420344C346F34773416
:02064C00003478
:0E064E004D346F3474346F3472342034003401
:0C065C0057346134743465347234003457
:060668004F344E34003453
:0C066E004C346534763465346C34003450
:02400E004A2F37
:00000001FF
